:020000040800F2
:10000000F81B002011020008594D0008694700083C
:10001000554D0008F90F0008FD5B000800000000C6
:100020000000000000000000000000005F4D00081C
:10003000EB100008000000005D4D0008614D000855
:100040002B0200082B0200082B0200082B020008DC
:100050002B0200082B0200082B0200082B020008CC
:100060002B0200082B0200082B0200082B020008BC
:100070002B0200082B0200082B0200082B020008AC
:100080002B020008FD0F00082B0200082B020008BD
:100090002B0200082B0200082B0200082B0200088C
:1000A000514E00082B0200082B0200082B0200080A
:1000B000614E00082B020008714E00082B02000858
:1000C0002B0200082B0200082B0200082B0200085C
:1000D0002B0200082B0200082B020008ED5B000831
:1000E0002B0200082B0200082B0200082B0200083C
:1000F0002B0200082B0200082B0200082B0200082C
:100100002B0200082B0200082B0200082B0200081B
:100110002B0200082B020008814E0008994E0008AF
:100120002B0200082B0200082B0200082B020008FB
:100130002B0200082B0200082B0200082B020008EB
:100140002B0200082B0200082B0200082B020008DB
:100150002B0200082B0200082B0200082B020008CB
:100160002B0200082B0200082B0200082B020008BB
:100170002B0200082B0200082B02000800000000E0
:100180002B0200082B0200082B0200082B0200089B
:100190002B0200082B0200082B0200082B0200088B
:1001A0002B0200082B0200082B0200082B0200087B
:1001B0002B0200082B0200082B0200082B0200086B
:1001C0002B0200082B020008000000002B02000890
:1001D0002B0200082B0200082B0200082B0200084B
:1001E0002B0200082B0200082B0200082B0200083B
:1001F0002B0200082B020008DFF810D000F0F8FBFB
:1002000000480047A16A0008AFF30080F81B0020F7
:100210000648804706480047FEE7FEE7FEE7FEE7A0
:10022000FEE7FEE7FEE7FEE7FEE7FEE73D4E0008DD
:10023000F90100082DE9F05F0546002092469B4633
:1002400088460646814640241BE0284641464746EC
:10025000224600F0C2F953465A46C01A914110D3C3
:1002600011461846224600F0A9F92D1A67EB01083D
:100270004F4622460120002100F0A0F917EB0009AB
:100280004E41201EA4F10104DFDC484631462A46D7
:100290004346BDE8F09FA0F16101192900D820383C
:1002A0007047D2B201E000F8012B491EFBD2704723
:1002B0000022F6E710B513460A4604461946FFF732
:1002C000F0FF204610BD421C10F8011B0029FBD195
:1002D000801A7047034611F8012B00F8012B002A01
:1002E000F9D118467047000070B50F4D00B9286865
:1002F000002412E00A4602E09E4203D0521C13780A
:10030000002BF9D1DAB2224305D02BB124B1002160
:1003100000F8011B04E00446401C0678002EE9D1D9
:100320002860204670BD0000C00000200FB400B55A
:100330008DB010A909900B9000914FF0FF300A90FA
:1003400000200C9005480690054807906A4609A8C9
:100350000F9900F067F90DB05DF814FB4106000835
:100360005F0600082DE9FF5F1D464FF0FF3BD5E912
:10037000014691465F464FF00008A9697F1C01982D
:100380008847296A824688470028F6D1BAF1FF3F9C
:100390000CD024F4C064002E19DD600614D5BAF127
:1003A0002B0F09D0BAF12D0F0ED103E0584604B03F
:1003B000BDE8F09F44F48064A9697F1C01988847D8
:1003C000761E8246002E02DDBAF1300F03D0B9F15D
:1003D000000F26D032E0A969761E44F400747F1C19
:1003E000019888478246002E05DDBAF1780F06D0C5
:1003F000BAF1580F03D0B9F1000F10D01EE0B9F1D7
:10040000000F02D0B9F1100F18D1A969761E24F49B
:1004100000747F1C019888478246102002E0082063
:1004200000E00A20814609E008FB0908A969761E58
:1004300044F400747F1C019888478246002E05DD35
:100440004946504600F0D9F80028EDDAE9690198EC
:100450008847A00502D46FF00100A8E7E00725D186
:10046000600613D5600502D5C8F1000000E04046E3
:1004700029680A1D2A600968220501D5087015E05F
:10048000220701D5088011E008600FE02868011DEF
:1004900029600068210502D580F8008006E0210768
:1004A00002D5A0F8008001E0C0F8008038467EE761
:1004B0002DE9FF5FD2E901A74FF000089169994645
:1004C0001446DDF838B0464601988847054659EA93
:1004D0000B0005D009E0A169761C01988847054604
:1004E000216A284688470028F5D1681C03D05FEAB6
:1004F000CA7005D015E04FF0FF3004B0BDE8F09FA2
:100500002068011D2160D0F800800AE05FEACA700F
:1005100001D108F8015BA169761C7F1E019888470C
:100520000546002F1ADD681C18D0B9F1000F0DD058
:10053000E81705EBD060421120F01F0059F8221097
:100540002A1A012090400142E0D107E0BBF1000FE0
:10055000DCD1216A284688470028D7D0E169019874
:100560008847BBF1000F07D1002E05DD5FEACA7096
:1005700002D1002188F80010A068B84203DDBBF169
:10058000000F03D017B16FF00100B6E73046B4E7B3
:1005900030B50B46014600202022012409E021FA53
:1005A00002F59D4205D303FA02F5491B04FA02F550
:1005B0002844151EA2F10102F1DC30BD202A04DB23
:1005C000203A00FA02F1002070479140C2F1200366
:1005D00020FA03F3194390407047202A04DB203AA5
:1005E00021FA02F00021704721FA02F3D040C2F153
:1005F000200291400843194670473A2800D230380B
:1006000020F02002412A01D3A2F13700884201D311
:100610004FF0FF307047000002681144137801600A
:1006200018467047D16004495161044911620021A4
:100630001161114600F006BA19060008390A0008CF
:10064000426842B1016811F8013B23B1521EC0E972
:100650000012184670470121C160881E7047426829
:100660005AB1C368016843B983688B4205D0491EFB
:10067000521CC0E90012002070474FF0FF30704755
:100680002DE9FE4F804681EA0300C00F0C46009022
:1006900021F0004123F00045B8EB0200A94105D24A
:1006A0004046214690461C460B46024623F0004039
:1006B000104347D0270DC7F30A00C3F30A51029035
:1006C000401A019040286BDAC3F3130040F4801BFA
:1006D0000098924620B10023D2EB030A63EB0B0B88
:1006E00001985946C0F140025046FFF767FF0646A1
:1006F0000D4650465946019A00F08CF910EB08005F
:100700006141002487EA115284EAE7731A4340D01A
:10071000009A62B3019A012A4FEA075215DC001BC6
:1007200061EB02014FF0004202EA0752CDE90042BC
:10073000001C41F5801132462B4600F02AFB03B025
:10074000BDE8F08F40462146F9E7001B61EB02014E
:10075000001C41F5801300185B412018A2F500171A
:1007600047EB030140EAD570B6196D4111E06D0801
:100770004FEA360645EAC0754FEA0752001B61EBA7
:100780000201001C41F5801149084FEA30000019B0
:10079000514132462B4603B0BDE8F04F00F0EABAB3
:1007A0000098012240000023D0EB020263EBE073CB
:1007B000009821464FEAE074B8EB000061EB0401B9
:1007C000E9E783F000435BE781F0004158E72DE95A
:1007D000FE4F81EA030404F0004421F0004100943C
:1007E0004FF0000B23F0004350EA01045ED052EAC0
:1007F00003045BD0C3F30A54C1F30A552C44A4F29A
:10080000F3340194A0FB0254C1F3130141F48011AD
:10081000C3F3130343F4801301FB024400FB034EB4
:10082000840A970A44EA815447EA8357A4FB07687D
:1008300002958D0A05FB07854FEA932C04FB0C54A7
:100840002705029D4FEA065847EA1637B5EB08051B
:100850006EEB070C870E920E47EA811742EA83126D
:10086000A7FB0201B6EB0B0164EB00042B0D43EA7E
:100870000C335E1844EB1C50DA465146E7FB02018C
:10088000C5F313044FEA0B3343EA14534FEA04321F
:10089000019C43EA0603A4F10C040294009CCDE9F8
:1008A00000B400F076FA03B0BDE8F08F00200146F6
:1008B000F9E72DE9F04D81EA030404F0004B21F043
:1008C000004514464FF0000A23F0004150EA0502AB
:1008D00020D054EA01021DD0C5F30A570246C5F3E1
:1008E0001303C1F31300C1F30A5640F4801543F417
:1008F0008013A7EB0608101BD64608F2FD3873EBF1
:10090000050002D308F1010801E092185B41B8F13B
:10091000000F03DA00200146BDE8F08D00204FF4FF
:100920008011064684460EE0171B73EB050705D3BE
:10093000121B63EB050306434CEA010C49084FEA1E
:10094000300092185B4150EA0107EDD152EA0300F2
:1009500012D082EA040083EA0501084305D0101B87
:10096000AB4106D20122002306E000224FF00043F3
:1009700002E06FF0010253101AEB06004CEB085135
:1009800010EB0A0041EB0B01BDE8F04D00F0F2B9AD
:10099000C1F30A52C1F3130140F2FF3341F4801155
:1009A0009A4202DA00200146704740F233439A42ED
:1009B000A2F2334202DC5242FFF70FBEFFF7FEBD48
:1009C00030B5041E71F1000404DB4FF000444042D6
:1009D00064EB0101141E73F1000405DB1C464FF0AB
:1009E0000043524263EB0403994208BF904230BD7A
:1009F000064C074D06E0E06840F0010394E807006C
:100A000098471034AC42F6D3FFF7FAFB3C7E00085F
:100A10005C7E0008202A06DBCB17203A41FA02F060
:100A200043EAE07306E041FA02F3D040C2F120024B
:100A30009140084319467047C0B24FF4F05100F09E
:100A4000F7B900002DE9F34F8BB04FF0000801F12A
:100A50000C000C464FF0010B46460DF1080A0190C0
:100A60006269012101989047051E2DD0252D2CD0BB
:100A7000216A8847C0B16269012101989047216AC3
:100A800088470028F7D1411E62690198904700E02D
:100A9000761CA1690B988847216A88470028F7D1FE
:100AA000E1690B988847DBE7A1690B9888470746FF
:100AB000A84201D1761CD3E7E1690B9888477F1CD7
:100AC00002D1B8F1000F6FD047E1002762693D46BF
:100AD0003946019890472A2804D16269012101987A
:100AE00090470125DFF888926269012101989047BB
:100AF000A0F130010A290AD24F45E5DC07EB870156
:100B000000EB4107303FDFD445F01005ECE7E90684
:100B100001D46FF000476C280AD04C2814D0682804
:100B200015D06A280DD074281CD07A281AD01DE060
:100B300062690121019890476C2802D045F00405B4
:100B400014E045F002050DE045F020050AE0626979
:100B5000012101989047682802D045F0080505E07A
:100B600045F400656269012101989047C4E9015785
:100B700065283DD019DC58287AD00CDC452837D0C0
:100B800004DC252826D0412831D131E046282FD059
:100B900047282CD12CE05B2877D0612828D0632807
:100BA0007CD0642823D15AE0D1E06F2848D008DCFB
:100BB00066281DD067281BD0692821D06E2816D141
:100BC00027E0702845D0732868D0752847D078284A
:100BD0000DD14DE0A1690B988847054625283FF4C3
:100BE00069AFE1690B9888476D1C3FF46AAFB4E0C8
:100BF00023466A466FF001000B99AFF300809FE037
:100C000045F040006060A80723464FF0000236D44C
:100C10003EE0E8077FF447AF2068011D21600068CF
:100C2000290501D506701BE7290701D5068017E7BE
:100C3000A90703D5F117C0E9006111E706600FE7C6
:100C400045F040006060A80723464FF0080216D424
:100C50001EE040F60E0125EA0100606016E045F056
:100C600040006060A80723464FF00A0207D40FE057
:100C700045F040006060A80708D5234610226FF0B9
:100C800001000B99AFF300805AE007E023461022E1
:100C90006FF001000B99FFF765FB51E04FF0000981
:100CA0004F464B46632802D05B2807D041E02079AD
:100CB000C00601D40120A06001273AE06269012149
:100CC000019890475E2805D14FF0010962694946B5
:100CD00001989047216939B900210A46534643F8E3
:100CE0002120491C0829FADBB0B3216969B9C11771
:100CF00000EBD16253110AEB830122F01F02821A2A
:100D000001200B68904003430B6062690121019848
:100D100090475D28E8D1B9F1000F09D00020514675
:100D200051F82020D24341F82020401C0828F7DB4E
:100D300002AB224600976FF001000B99FFF7B8FB5A
:100D400000280CDA401C08D1BBF1000F05D04FF091
:100D5000FF300DB0BDE8F08FFFE74046F9E7E90747
:100D600001D108F1010806444FF0000B78E60000BD
:100D7000CCCCCC0C10B5141E73F1000408DA401C66
:100D800041F1000192185B411A4301D120F00100AA
:100D900010BD2DE9F04D92469B4611B1B1FA81F29A
:100DA00002E0B0FA80F220329046FFF707FC0446DA
:100DB0000F4640EA0A0041EA0B0153465A460843EF
:100DC00013D0114653EA010019D0C8F14002504631
:100DD000FFF703FC05460E46504659464246FFF7CC
:100DE000EDFB084305D0012004E020463946BDE86C
:100DF000F08D0020054346EAE0762C4337430A98FD
:100E00006305E40AA0EB08000022FD0A44EA475407
:100E10000A3002D500200146E9E7010510196941B1
:100E2000DDE9084500196941BDE8F04DA2E7000081
:100E30007F2801D9002208E0064A02EB5002C007D1
:100E4000127800D1120902F00F02012090400840F0
:100E500070470000327A00085849096821F440318F
:100E6000574AC2F804131146D1F8041342681143DB
:100E7000524A11600168496821F48071026851602A
:100E800001684A68016942EA01210268516001680B
:100E9000496821F0407102685160016849688268C0
:100EA0001143026851600168896821F40061026899
:100EB000916001688968C268114302689160414A83
:100EC000816A914218D00168896821F070610268D6
:100ED000916001688968826A1143026891600168C3
:100EE000896821F040510268916001688968C26A8E
:100EF0001143026891600BE00168896821F070611C
:100F0000026891600168896821F04051026891602F
:100F10000168896821F002010268916001688A68AD
:100F2000816942EA4101026891602021095CA1B116
:100F30000168496841F400610268516001684968CC
:100F400021F460410268516001684A68416A491EA3
:100F500042EA41310268516005E00168496821F4C4
:100F60000061026851600168C96A21F47001026879
:100F7000D1620168CA6A818B491E42EA0151026846
:100F8000D1620168896821F400710268916001688A
:100F90008A6890F8301042EA412102689160016845
:100FA000896821F480610268916001688A684169FA
:100FB00042EA8121026891607047000004230140E9
:100FC000002001400100000F01460A48007838B1B6
:100FD000002208480078401EC0B2064B18700A5420
:100FE0000448007810B90020487008700148007863
:100FF000085C70470000002000BFFEE710B5024803
:1010000000F054FC10BD00003811002001460878A3
:1010100010381823B0FBF3F20848805CC865032A37
:1010200005D908686FF30900001D886503E00868AA
:101030006FF309008865886D70470000127A000818
:10104000014600208A6A8B69CBB932B1012A0DD0E2
:10105000022A03D0032A10D10EE000BFCB6A03F0AE
:101060008073B3F1807F00D1012007E0CB6AB3F138
:10107000C07F00D1012001E000E000BF34E08B69B7
:10108000B3F5005F1AD132B1012A07D0022A03D08A
:10109000032A11D10AE000BF01200EE0CB6A03F061
:1010A0008073B3F1807F00D1012006E0CB6AB3F1F9
:1010B000C07F00D1012000E000BF15E032B1012A5D
:1010C00005D0022A04D0032A0CD103E000BF00BFE0
:1010D000012008E0CB6A03F08073B3F1807F00D178
:1010E000012000E000BF00BF704770470146102993
:1010F00025D2DFE801F0080A0C0E24241012141681
:10110000181A1C1E2022002070470120FCE7022034
:10111000FAE70320F8E70620F6E70720F4E70820BF
:10112000F2E70920F0E70A20EEE70B20ECE70C20BD
:10113000EAE70D20E8E70E20E6E70F20E4E70120CC
:10114000E2E772B600BFFEE718B502460020009045
:1011500000BF92F83C00012801D1022018BD0120F7
:1011600082F83C0000BF0868092826D90868B0F159
:10117000004F22D01068C0680B780A3B03EB430491
:101180000723A34098431368D860604B08689842CF
:1011900007D11068C0680B7A40EA03601368D86012
:1011A0001FE00B780A3B03EB430388689840136801
:1011B000DB6818431368D86013E0106800690B7887
:1011C00003EB43040723A3409843136818610B788B
:1011D00003EB43038868984013681B69184313683E
:1011E00018614868072817D21068406B0B795B1E9E
:1011F00003EB83041F23A3409843136858630888B4
:1012000080B20B795B1E03EB8303984013685B6B22
:1012100018431368586331E048680D2817D21068E6
:10122000006B0B79DB1F03EB83041F23A340984360
:1012300013681863088880B20B79DB1F03EB830304
:10124000984013681B6B18431368186316E0106806
:10125000C06A0B790D3B03EB83041F23A340984323
:101260001368D862088880B20B790D3B03EB8303C7
:1012700098401368DB6A18431368D862244B1068DF
:10128000984209D10868B0F1004F05D121480068A3
:1012900020F44000C3F804031D4B1068984208D1A5
:1012A0000868122805D11B48006840F48000C3F884
:1012B0000403174B1068984220D1144B08689842D9
:1012C00002D00868112819D11248006840F40000C3
:1012D000104B18600D4B086898420FD10E480068FB
:1012E0000E4BB0FBF3F000EB80004000009002E0FA
:1012F0000098401E009000980028F9D100BF0020FF
:1013000082F83C0000BF00BF28E700001200001078
:101310000020014004230140BC00002040420F0097
:1013200001460868C06C704770B5044600250CB9CA
:10133000012070BD1549A06A884200D000BF206C12
:1013400030B9204600F024F80020606484F83C00A6
:10135000206C00F0100088B9206C20F4885040F018
:10136000020020642046FFF777FD00206064206CB7
:1013700020F0020040F00100206400E0012500BFE1
:10138000002084F83C0000BF2846D2E70100000F8F
:1013900010B586B00446142101A8FEF789FF2D4937
:1013A0002068884254D100BF2B48006840F4807008
:1013B000294908600846006800F48070009000BF6A
:1013C00000BF00BF24481438006840F004002249E0
:1013D000143908600846006800F00400009000BF5F
:1013E00000BF00BF0846006840F0010008600846E2
:1013F000006800F00100009000BF00BF00BF084679
:10140000006840F0020008600846006800F0020032
:10141000009000BF00BF3F200190032002900020F9
:10142000039001A90D4800F0EBFBCF2001900320B1
:1014300002900020039001A9094800F0E1FB03207D
:10144000019002900020039001A9064800F0D8FB0B
:1014500006B010BD002001404438024000080240A0
:10146000000002400004024008B501460020009040
:1014700000BF91F83C00012801D1022008BD0120E5
:1014800081F83C0000BF0868806800F00100A0B946
:101490000868806840F001000A6890603D48006874
:1014A0003D4AB0FBF2F000EB4000009002E00098F3
:1014B000401E009000980028F9D10868806800F06C
:1014C000010000285CD0086C40F20162904340F4B7
:1014D000807008640868406800F4806028B1086C77
:1014E00020F4005040F480500864086C00F48050F0
:1014F000B0F5805F04D1486C20F00600486401E03C
:101500000020486400BF002081F83C0000BF6FF05D
:1015100022000A6810602148006800F01F0058B9D6
:101520000868806800F0405048BB0868806840F058
:1015300080400A6890602BE0194A086890420AD1FE
:101540000868806800F0405028B90868806840F05A
:1015500080400A6890601148006800F0100070B97F
:10156000104A0868904213D10868806800F0405023
:1015700028B90868806840F080400A68906007E0F9
:10158000086C40F010000864486C40F001004864AA
:10159000002073E7BC00002040420F0004230140FC
:1015A0000020014000220140014600BF91F83C00AC
:1015B000012801D102207047012081F83C0000BFC2
:1015C0000868806820F001000A68906008688068F8
:1015D00000F0010028B9086C20F4885040F00100A8
:1015E000086400BF002081F83C0000BF00BFE2E7B4
:1015F0007047F0B5034600BF5879012801D1022099
:10160000F0BD0120587100BF0220187118680468ED
:1016100002F0100640F6FE70B0408443D1E90006A7
:1016200040EA060502F0100005FA00F004431868CD
:1016300004601868006802F01007C026BE40B0437E
:101640001E6830600120187100BF0020587100BF73
:1016500000BFD5E7704710B504462068006800F465
:101660000050B0F5005F19D12068406B00F40050C5
:10167000B0F5005F12D104202071206940F0010014
:1016800020614FF40050216848632068006820F40E
:101690008050216808602046FFF7DCFF2068006862
:1016A00000F00050B0F1005F19D12068406B00F0ED
:1016B0000050B0F1005F12D104202071206940F089
:1016C000020020614FF000502168486320680068E4
:1016D00020F08050216808602046FFF789FF10BD88
:1016E00010B504460CB9012010BD207920B90020A6
:1016F0006071204600F008F802202071002020616F
:10170000012020710020EFE710B586B004461421B7
:1017100001A8FEF7CDFD2B492068884250D100BFBB
:101720002948006840F000502749086008460068D2
:1017300000F00050009000BF00BF00BF22481038EA
:10174000006840F001002049103908600846006830
:1017500000F00100009000BF00BF20200190032096
:1017600002900020039001A9184800F049FA184897
:10177000184908604FF0606048604021154881605A
:101780000021C1604FF480610161890041618900DD
:1017900081618911C16100210162416200F0A6F9F5
:1017A00008B1FFF7CEFC00BF0A48E060846300BFC9
:1017B00000221146362000F0BBFB362000F0A8FBCB
:1017C00006B010BD007400404038024000000240E6
:1017D000A06002403811002070B50446A56D00F0ED
:1017E00033FB064694F83500022808D08020606557
:1017F00000BF002084F8340000BF012070BD2068C5
:10180000006820F01600216808602068406920F018
:10181000800021684861206C08B9A06C28B120685C
:10182000006820F00800216808602068006820F047
:101830000100216808600FE000F006FB801B05280E
:101840000AD92020606500BF002084F8340000BF62
:10185000032084F83500D1E72068006800F001001B
:101860000028E9D194F85C103F208840A86000BFB0
:10187000002084F8340000BF012084F835000020E7
:10188000BCE7014691F83500022803D08020486566
:1018900001207047052081F835000868006820F0B5
:1018A00001000A6810600020F3E70000F8B5044664
:1018B000002000908C4800684FF41651B0FBF1F7FF
:1018C000A56D2E6894F85C1008208840304098B1CF
:1018D0002068006800F0040070B12068006820F003
:1018E00004002168086094F85C1008208840A86013
:1018F000606D40F00100606594F85C100120884044
:10190000304068B12068406900F0800040B194F830
:101910005C1001208840A860606D40F002006065A6
:1019200094F85C1004208840304068B1206800685A
:1019300000F0020040B194F85C1004208840A860D8
:10194000606D40F00400606594F85C1010208840E1
:10195000304078B32068006800F0080050B394F875
:101960005C1010208840A8602068006800F4802087
:1019700080B12068006800F4002028B9206CC8B14C
:101980002046216C884715E0A06C98B12046A16CD8
:1019900088470FE02068006800F4807028B920684C
:1019A000006820F0080021680860206C10B1204613
:1019B000216C884794F85C10202088403040002833
:1019C00065D02068006800F0100000285FD094F80F
:1019D0005C1020208840A86094F83500052828D1A4
:1019E0002068006820F016002168086020684069BF
:1019F00020F0800021684861206C08B9A06C28B1F3
:101A00002068006820F008002168086094F85C10E5
:101A10003F208840A86000BF002084F8340000BF49
:101A2000012084F83500206D10B12046216D8847D3
:101A3000F8BD2068006800F4802080B1206800684C
:101A400000F4002028B9606C10B12046616C884712
:101A50001DE0E06BD8B12046E16B884717E02068B5
:101A6000006800F4807068B92068006820F01000F9
:101A70002168086000BF002084F8340000BF012006
:101A800084F83500E06B10B12046E16B8847606D4B
:101A900038B3606D00F00100F0B1052084F8350026
:101AA0002068006820F001002168086000BF0098ED
:101AB000401C0090B84200D905E02068006800F0A2
:101AC00001000028F3D100BF00BF002084F83400DB
:101AD00000BF012084F83500E06C10B12046E16CB5
:101AE000884700BFA4E70000BC0000202DE9F041BA
:101AF0000446002500F0A8F9074614B90120BDE806
:101B0000F081606A00B100BF00BF002084F834009B
:101B100000BF022084F835002068006820F0010032
:101B2000216808600AE000F08FF9C01B052805D97C
:101B300020206065032084F83500E0E72068006815
:101B400000F001000028EED120680568214805401A
:101B5000D4E901010843E168084321690843616948
:101B60000843A1690843E1690843216A0843054322
:101B7000606A042803D1D4E90B01084305432068B7
:101B800005602068456925F00705606A0543606ABD
:101B900004280DD1A06A0543E06A48B12046FFF74A
:101BA0004FFA28B140206065012084F83500A6E78F
:101BB000206845612046FFF729FA064694F85C1034
:101BC0003F208840B06000206065012084F8350027
:101BD000002094E73F8010E070B5044600F034F92F
:101BE00006462546681C10B104480078054400BF2D
:101BF00000F02AF9801BA842FAD370BDB80000207B
:101C0000F8B502460B46002100250024002000BF45
:101C1000E4E0012606FA01F51E6806EA0504AC4276
:101C200071D15E68012E08D05E68022E05D05E6814
:101C3000112E02D05E68122E13D190684F00032639
:101C4000BE40B0434F00DE68BE40304390605068F5
:101C500001268E40B0431E79C6F300168E403043F5
:101C60005060D0684F000326BE40B0434F009E68CE
:101C7000BE403043D0605E68022E02D05E68122EF5
:101C800013D1CF0802F1200656F827004E07F70EB1
:101C90000F26BE40B0434F07FF0E1E69BE403043C3
:101CA000CF0802F1200646F8270010684F000326EF
:101CB000BE40B0431E7906F003064F00BE403043DD
:101CC00010605E6806F08056B6F1805FA8D100BF54
:101CD000444E366846F48046424F3E603E46366883
:101CE00006F48046009600BF00BF3F4E8F0856F8AE
:101CF00027008E07370F0F26BE40B0433B4EB2423F
:101D000002D100262EE068E0394EB24201D1012610
:101D100028E0384EB24201D1022623E0364EB242CC
:101D200001D103261EE0354EB24201D1042619E04E
:101D3000334EB24201D1052614E0324EB24201D1F7
:101D400006260FE0304EB24201D107260AE02F4EA0
:101D5000B24201D1082605E02D4EB24201D109263A
:101D600000E00A268F073F0FBE4030431E4E8F080B
:101D700046F82700274E3068A0435E6806F4803698
:101D8000B6F5803F00D12043224E3060361D3068CA
:101D9000A0435E6806F40036B6F5003F00D120434C
:101DA0001C4E361D3060361D3068A0435E6806F458
:101DB0008016B6F5801F00D12043164E08363060DD
:101DC000361D3068A0435E6806F40016B6F5001FA5
:101DD00000D120430F4E0C363060491C1029FFF40F
:101DE00018AFF8BD443802400838014000000240F6
:101DF0000004024000080240000C024000100240B3
:101E00000014024000180240001C02400020024062
:101E100000240240003C0140024613690B400BB114
:101E2000012000E00020704710B5426921EA02035A
:101E300002EA010443EA0443836110BD0AB18161EF
:101E400001E00B048361704701480068704700009F
:101E5000B00000200348006803490978084401499C
:101E600008607047B0000020B800002010B50320C3
:101E700000F09CF8002000F005F800F029F80020A0
:101E800010BD000070B504460E4800784FF47A711A
:101E9000B1FBF0F00C490968B1FBF0F5284601F000
:101EA0005FF808B1012070BD102C07D20022214636
:101EB000501E00F03DF80548046001E00120F2E703
:101EC0000020F0E7B8000020BC000020B400002093
:101ED00008B500BF0D48006840F080500B4908600D
:101EE0000846006800F08050009000BF00BF00BFAF
:101EF000081D006840F48040091D0860084600681D
:101F000000F48040009000BF00BF08BD4038024090
:101F100001460846002809DB00F01F0301229A4011
:101F200043099B0003F1E023C3F8002100BF704781
:101F30002DE9F05F80460D461646002703F084FE2B
:101F4000074639462A46334601F00700C0F1070A22
:101F5000BAF1040F02D94FF0040A01E0C0F1070AF8
:101F6000D14600F1040ABAF1070F02D24FF0000A7D
:101F700001E0A0F1030AD4464FF0010A0AFA09FA77
:101F8000AAF1010A0AEA020A0AFA0CFA4FF0010B56
:101F90000BFA0CFBABF1010B0BEA030B4AEA0B0447
:101FA0002146404603F058FEBDE8F09F00BF00F018
:101FB0000702064B19684FF6FF031940044B0B4309
:101FC00043EA0221014B196000BF70470CED00E0AD
:101FD0000000FA0538B5002400BF2048006840F032
:101FE00080501E4908600846006800F0805000904C
:101FF00000BF00BF1A48006840F4803018490860EC
:10200000FFF722FF044607E0FFF71EFF001BB0F5B5
:102010007A7F01D9032038BD1148406800F4803030
:10202000B0F5803FF0D10E48006840F400300C4914
:102030000860FFF709FF044607E0FFF705FF001BF4
:10204000B0F57A7F01D90320E5E70548406800F440
:102050000030B0F5003FF0D10020DCE7403802400E
:10206000007000402DE9F8430446002600250027B3
:10207000A846A946207800F0010088B100BFFE48BC
:10208000006820F40000FC49086008460068616BA5
:102090000843F949086000BF606B08B94FF00108B8
:1020A000206800F40020B0F5002F13D1F2488430EE
:1020B000006820F44010E16B0843EF498431086068
:1020C000E06BB0F5801F01D14FF00108E06B08B95B
:1020D0004FF00109206800F48010B0F5801F13D183
:1020E000E5488430006820F44000216C0843E24950
:1020F00084310860206CB0F5800F01D14FF00108E9
:10210000206C08B94FF00109206800F08070B0F130
:10211000807F01D14FF00108207800F020002028B6
:1021200070D100BFD4483830006840F08050D249A8
:10213000383108600846006800F08050009000BF09
:1021400000BFCE48006840F48070CC490860FFF7BB
:102150007BFE064607E0FFF777FE801B642802D966
:102160000320BDE8F883C548006800F480700028AB
:10217000F1D0C1486830006800F4407585B3208E06
:1021800000F44070A8422BD0BB486830006820F4AF
:102190004075B9486830006840F48030B64968310D
:1021A00008600846006820F4803008600846056032
:1021B000006800F0010098B1FFF746FE064608E00F
:1021C000FFF742FE801B41F28831884201D903208B
:1021D000C7E7A94868300068C0F340000028EFD086
:1021E00000BF208E00F44070B0F5407F0BD1A248B4
:1021F000006820F4F810A24A216B114008439E4960
:10220000086006E010E09C48006820F4F8109A4945
:102210000860994868300068218EC1F30B010843BB
:1022200095496831086000BF207800F01000102840
:1022300010D100BF90488430006820F080708E4933
:102240008431086008460068A16B08438A498431DC
:10225000086000BF208800F48040B0F5804F09D1AD
:1022600085488830006820F44030616E0843824918
:1022700088310860208800F40040B0F5004F09D193
:102280007D488830006820F44020A16E08437A49D8
:1022900088310860206800F48030B0F5803F09D1B3
:1022A00075488830006820F44010E16E0843724998
:1022B00088310860206800F40030B0F5003F09D193
:1022C0006D488830006820F44000216F08436A4957
:1022D00088310860207800F04000402809D1664825
:1022E0008830006820F00300616C0843624988313F
:1022F0000860207800F08000802809D15E4888308E
:10230000006820F00C00A16C08435B49883108602C
:10231000208800F48070B0F5807F09D1564888305D
:10232000006820F03000E16C0843534988310860B0
:10233000208800F40070B0F5007F09D14E48883045
:10234000006820F0C000216D08434B4988310860C7
:10235000208800F48060B0F5806F09D1464888304D
:10236000006820F44070616D08434349883108607B
:10237000208800F40060B0F5006F09D13E48883035
:10238000006820F44060A16D08433B498831086033
:10239000208800F48050B0F5805F09D1364888303D
:1023A000006820F44050E16D0843334988310860EB
:1023B000208800F40050B0F5005F09D12E48883025
:1023C000006820F44040216E08432B4988310860A2
:1023D000206800F48000B0F5800F09D126488830CD
:1023E000006820F08060A16F0843234988310860AD
:1023F000206800F40010B0F5001F0FD11E4888308F
:10240000006820F00060E16F08431B4988310860D4
:10241000E06FB0F1006F01D14FF00109207800F0BA
:102420000800082801D14FF00109206800F480203D
:10243000B0F5802F09D110488830006820F0407036
:10244000616F08430C4988310860206800F400007F
:10245000B0F5000F0AD108488830006820F080509D
:10246000D4F880100843044988310860206800F0DF
:102470008060B0F1806F05E00838024000700040D5
:10248000FFFCFF0F08D1CD48006820F00050D4F8C1
:1024900084100843C9490860206800F00060B0F16A
:1024A000006F0AD1C548001F006820F00070D4F802
:1024B00088100843C149091F0860206800F0805057
:1024C000B0F1805F0AD1BD48001F006820F0806035
:1024D000D4F88C100843B949091F0860B8F1010FFE
:1024E00005D0206800F00070B0F1007F7ED1B348C5
:1024F0009038006820F08060B04990390860FFF79C
:10250000A3FC064606E0FFF79FFC801B642801D968
:10251000032026E6A94890380068C0F3C060002870
:10252000F1D1207800F00100B8B1606BA8B9A348E0
:102530000C380068C0F30145A0480C380068C0F3AF
:1025400003676068800140EA054040EA0761207A3D
:1025500041EA007099490C390860206800F40020B5
:10256000B0F5002F03D1E06BB0F5801F09D02068D3
:1025700000F48010B0F5801F24D1206CB0F5800FDE
:1025800020D18E480C380068C0F301458B480C38C8
:102590000068C0F302776068800140EA0541207B53
:1025A00041EA006040EA077084490C3908608348BA
:1025B000001F006820F01F00616A491E08437F4920
:1025C000091F0860206800F08070B0F1807F17D18B
:1025D0007A480C380068C0F3036578480C38006806
:1025E000C0F3027760688101208A00E036E041EAAA
:1025F000004040EA056040EA077070490C39086005
:10260000206800F00070B0F1007F0DD1606881019A
:10261000208A41EA0041207B41EA0061207A41EAB8
:10262000007066490C39086064489038006840F0D2
:102630008060624990390860FFF706FC064606E0B4
:10264000FFF702FC801B642801D9032089E55B4861
:1026500090380068C0F3C0600028F1D0B9F1010FD4
:102660007ED156489038006820F080505349903908
:102670000860FFF7E9FB064606E0FFF7E5FB801B75
:10268000642801D903206CE54C4890380068C0F3F9
:1026900040700028F1D1206800F40020B0F5002F30
:1026A00001D1E06B38B1206800F48010B0F5801FD4
:1026B00022D1206C00BB414808380068C0F30145B6
:1026C0003E4808380068C0F302776069800140EA3C
:1026D0000541207E41EA006040EA07703749083929
:1026E0000860081D006820F4F851A06A401E41EA05
:1026F00000203249091F0860206800F40010B0F57E
:10270000001F19D1E06FB0F1006F15D12B480838C8
:102710000068C0F30365294808380068C0F30277F1
:1027200060698101208C41EA004040EA056040EA8E
:102730000770224908390860207800F0080008284E
:1027400020D11E4808380068C0F303651B480838CC
:102750000068C0F301476069800140EA074000E07B
:102760002AE040EA0561207F41EA007013490839F8
:102770000860081D006820F44030E16A08430F49F2
:10278000091F08600D489038006840F080500B49E0
:1027900090390860FFF758FB064606E0FFF754FB48
:1027A000801B642801D90320DBE4044890380068CA
:1027B000C0F340700028F1D00020D2E490380240ED
:1027C00070B504460D4600260CB9012070BD5C486A
:1027D000006800F00F00A8420ED25948006820F0AF
:1027E0000F002843564908600846006800F00F00B3
:1027F000A84201D00120E9E7207800F00200022879
:102800001DD1207800F00400042805D14D4800684F
:1028100040F4E0504B490860207800F00800082898
:1028200005D14848006840F4604046490860454882
:10283000006820F0F000A168084342490860207851
:1028400000F0010090B36068012807D13D480838C6
:102850000068C0F34040A0B90120B7E760680228D3
:1028600007D1384808380068C0F3406048B90120F3
:10287000ACE7344808380068C0F3400008B90120CC
:10288000A4E73048006820F00300616808432D4940
:102890000860FFF7D9FA064609E0FFF7D5FA801B72
:1028A00041F28831884202D903208FE707E02548AA
:1028B000006800F00C006168B0EB810FEDD120489A
:1028C000006800F00F00A8420ED91D48006820F0F3
:1028D0000F0028431A4908600846006800F00F00FE
:1028E000A84201D0012071E7207800F004000428FC
:1028F00007D11448006820F4E050E168084311490A
:102900000860207800F00800082808D10D48006809
:1029100020F46040216940EAC1000A49086000F0E3
:102920003FF808490968C1F30311074A515CC840E0
:102930000649086006480068FFF7A4FA002045E74A
:10294000003C0240083802401A7A0008BC0000200F
:10295000B40000200148006870470000BC0000205F
:1029600000B5FFF7F7FF04490968C1F38221034A64
:10297000515CC84000BD0000083802402A7A0008B7
:1029800000B5FFF7E7FF04490968C1F34231034A84
:10299000515CC84000BD0000083802402A7A000897
:1029A0002DE9F047002400250026A14625480068AF
:1029B00000F00C0020B1042805D008283AD105E029
:1029C000DFF8849039E0DFF8809036E01D48001F82
:1029D000006800F03F041B48001F006800F48000FE
:1029E00078B119481749091F0968C1F38811A0FB7C
:1029F00001700146224600233846FDF71BFC0546C0
:102A00000EE011480F49091F0968C1F38811A0FBA6
:102A100001700146224600233846FDF70BFC0546AF
:102A20000848001F0068C0F30140401C4600B5FB89
:102A3000F6F902E0DFF8109000BF00BF4846BDE89D
:102A4000F0870000083802400024F400F8B504467E
:102A500000270CB90120F8BD207800F00100002803
:102A600071D0F948006800F00C0004280DD0F64839
:102A7000006800F00C00082813D1F348001F00681C
:102A800000F48000B0F5800F0BD1EF4808380068E3
:102A9000C0F34040002869D06068002866D101205A
:102AA000D9E700BF6068B0F5803F08D1E648083834
:102AB000006840F48030E449083908602EE060681E
:102AC00068B9E1480838006820F48030DE490839E8
:102AD00008600846006820F4802008601EE06068F6
:102AE000B0F5A02F0DD1D8480838006840F48020F8
:102AF000D549083908600846006840F4803008600D
:102B00000CE0D1480838006820F48030CE490839FC
:102B100008600846006820F48020086000BF6068F4
:102B200090B1FFF791F9054606E0FFF78DF9401BDC
:102B3000642801D903208EE7C34808380068C0F331
:102B400040400028F1D011E0FFF77EF9054606E08D
:102B5000FFF77AF9401B642801D903207BE7BA48C4
:102B600008380068C0F340400028F1D1207800F018
:102B70000200022869D1B448006800F00C0058B186
:102B8000B148006800F00C0008281CD1AE48001FB6
:102B9000006800F48000B0B9AB4808380068C0F3A2
:102BA000400020B1E068012801D0012053E7A64889
:102BB0000838006820F0F800216940EAC100A24905
:102BC0000839086041E0E06828B39F480838006889
:102BD00040F001009C4908390860FFF735F90546C7
:102BE00006E0FFF731F9401B022801D9032032E744
:102BF000954808380068C0F340000028F1D092489A
:102C00000838006820F0F800216940EAC1008E49C8
:102C10000839086019E08C480838006820F0010085
:102C2000894908390860FFF70FF9054606E0FFF704
:102C30000BF9401B022801D903200CE78248083811
:102C40000068C0F340000028F1D1207800F00800AF
:102C5000082836D16069D0B17B486C30006840F0FC
:102C6000010079496C310860FFF7EEF8054606E08F
:102C7000FFF7EAF8401B022801D90320EBE672486F
:102C80006C300068C0F340000028F1D019E06E48B5
:102C90006C30006820F001006B496C310860FFF770
:102CA000D3F8054606E0FFF7CFF8401B022801D90C
:102CB0000320D0E664486C300068C0F34000002870
:102CC000F1D1207800F00400042874D15E48383037
:102CD000006800F0805080B900BF5B483830006861
:102CE00040F080505849383108600846006800F0CC
:102CF0008050009000BF00BF01275448006800F4D6
:102D00008070B0B95148006840F480704F49086045
:102D1000FFF79AF8054606E0FFF796F8401B64288F
:102D200001D9032097E64948006800F48070002824
:102D3000F2D000BFA068012808D14348683000687D
:102D400040F001004049683108602DE0A06868B992
:102D50003D486830006820F001003B496831086058
:102D60000846006820F0040008601DE0A0680528FF
:102D70000DD135486830006840F0040032496831B0
:102D800008600846006840F0010008600CE02E482A
:102D90006830006820F001002B496831086008465F
:102DA000006820F00400086000BFA068A8B1FFF729
:102DB0004BF8054609E02EE0FFF746F8401B41F2CC
:102DC0008831884201D9032045E61F4868300068F1
:102DD000C0F340000028EFD013E0FFF735F80546B8
:102DE00008E0FFF731F8401B41F28831884201D9F1
:102DF000032030E6144868300068C0F34000002823
:102E0000EFD1012F07D110483830006820F08050F2
:102E10000D4938310860A069002854D00A4800687C
:102E200000F00C00082867D0A06902284CD10648A1
:102E30000838006820F08070034908390860FFF7FF
:102E400003F805460BE0000008380240007000401F
:102E5000FEF7FAFF401B022801D90320FBE53F489B
:102E60000068C0F340600028F2D1D4E907010843AC
:102E7000616A40EA81110122A06AC2EB500041EA76
:102E800000412C20005D41EA00613020005D41EAF4
:102E900000703249091D0860081F006840F080700A
:102EA000091F0860FEF7D0FF054606E0FEF7CCFFDD
:102EB000401B022801D90320CDE528480068C0F353
:102EC00040600028F2D047E02448006820F080707D
:102ED00022490860FEF7B8FF054606E0FEF7B4FF9A
:102EE000401B022801D90320B5E51C480068C0F347
:102EF00040600028F2D12FE01848001D0668A06944
:102F0000012827D006F48001E069814222D106F031
:102F10003F01206A81421DD147F6C0703040616A8E
:102F2000B0EB811F16D106F440310122A06AC2EB3A
:102F30005000B1EB004F0DD106F070612C20005D08
:102F4000B1EB006F06D106F0E0413020005DB1EB3F
:102F5000007F01D001207EE500207CE500380240A2
:102F600070B504462546681EB0F1807F01D301206C
:102F70000FE0681E4FF0E02148610F214FF0FF3055
:102F800002F06AFE00204FF0E0218861072008610E
:102F9000002070BD704770477047000030B5024692
:102FA0000B4600BF92F83C00012801D1022030BD41
:102FB000012082F83C0000BF022082F83D0010682A
:102FC000416810688468214D1068A84203D0204DE4
:102FD0001068A84203D121F470015868014321F020
:102FE00070011868014310684160184D1068A842CC
:102FF0001BD01068B0F1804F17D0164D1068A84252
:1030000013D0154D1068A8420FD0144D1068A84277
:103010000BD00F4D1068A84207D0114D1068A84280
:1030200003D0104D1068A84205D124F080049868A0
:10303000044310688460012082F83D0000BF002036
:1030400082F83C0000BF00BFB1E700000000014073
:10305000000401400004004000080040000C004053
:10306000004001400018004010B504460CB9012092
:1030700010BD94F83D0028B9002084F83C0020469B
:1030800000F02AF8022084F83D00211D206801F09C
:103090000BFF012084F8480000BF84F83E000121A6
:1030A0003F20015540200155412001554220015546
:1030B0004320015500BF00BF012084F84400452093
:1030C0000155462001554720015500BF012084F8D5
:1030D0003D000020CCE7000038B504462068B0F180
:1030E000804F16D100BF3448006840F001003249DB
:1030F00008600846006800F00100009000BF00BFB3
:10310000002211461C20FEF713FF1C20FEF700FFD3
:1031100051E02A492068884216D100BF264800683D
:1031200040F01000244908600846006800F01000D4
:10313000009000BF00BF002211463620FEF7F8FEC7
:103140003620FEF7E5FE36E01D492068884216D19C
:1031500000BF1948006840F0200017490860084681
:10316000006800F02000009000BF00BF0022114660
:103170003720FEF7DDFE3720FEF7CAFE1BE01149BF
:103180002068884217D100BF0B48001D006840F43A
:1031900080300949091D08600846006800F4803045
:1031A000009000BF00BF002211461820FEF7C0FEAD
:1031B0001820FEF7ADFE38BD403802400010004038
:1031C0000014004000400140014691F83D000128F4
:1031D00001D001207047022081F83D000868C068D6
:1031E00040F001000B68D8601C4B086898421BD067
:1031F0000868B0F1804F17D0194B0868984213D077
:10320000184B086898420FD0174B086898420BD0AB
:10321000164B0868984207D0154B0868984203D0AF
:10322000144B0868984210D108688068124B00EA75
:103230000302062A0FD0B2F5803F0CD00868006860
:1032400040F001000B68186005E00868006840F075
:1032500001000B6818600020BCE70000000001407E
:103260000004004000080040000C00400004014041
:1032700000400140001800400700010001460868B6
:10328000C06820F001000A68D06000BF0868006ACA
:1032900041F21112104050B90868006A92101040B3
:1032A00028B90868006820F001000A68106000BFB3
:1032B000012081F83D000020704700002DE9F04119
:1032C00004460D4600BF94F83C00012802D10220BC
:1032D000BDE8F081012084F83C0000BF022084F8A2
:1032E0003D00206886683748064026F47F462068FF
:1032F00086602868502833D00CDC202850D004DCAD
:1033000000284BD0102851D149E0302849D040281E
:103310004CD139E060282DD0702807D0B0F5805FFF
:1033200003D0B0F5005F41D10DE040E0D5E90213D4
:103330006A68206801F035FE2068866846F07706E6
:103340002068866033E0D5E902136A68206801F0DE
:1033500028FE2068806840F480402168886026E06C
:10336000EA686968206801F067FF5021206801F071
:1033700023FE1CE0EA686968206801F0B9FF60215B
:10338000206801F019FE12E0EA686968206801F01F
:1033900053FF4021206801F00FFE08E000BF00BF8E
:1033A00000BF2968206801F007FE00E000BF00BFF1
:1033B000012084F83D0000BF002084F83C0000BFDD
:1033C00000BF85E788FFFEFF10B504460B49206863
:1033D000884211D141150A48FEF71EFD18B9012097
:1033E0000849086003E04FF0FF30064908600648CE
:1033F0000068401C0449086010BD0000000800403F
:103400000008024030000020340000202DE9F04187
:1034100004460D46164600BF94F83C00012802D130
:103420000220BDE8F081012084F83C0000BF96B97D
:10343000EB68D5E90012206801F012FF206880696E
:1034400020F00C002168886120688069A968084321
:10345000216888613DE0042E13D1EB68D5E90012A4
:10346000206801F059FF2068806920F440602168DD
:10347000886120688069A96840EA01202168886124
:1034800027E0082E12D1EB68D5E90012206801F080
:1034900060FF2068C06920F00C002168C8612068C6
:1034A000C069A96808432168C86112E0EB68D5E9E2
:1034B0000012206801F069FF2068C06920F44060B4
:1034C0002168C8612068C069A96840EA01202168B4
:1034D000C86100BF002084F83C0000BF00BFA0E727
:1034E00010B504460CB9012010BD94F83D0028B970
:1034F000002084F83C00204600F02AF8022084F8DE
:103500003D00211D206801F0CFFC012084F8480017
:1035100000BF84F83E0001213F20015540200155A5
:1035200041200155422001554320015500BF00BFF5
:10353000012084F8440045200155462001554720CC
:10354000015500BF012084F83D000020CCE70000B9
:1035500010B586B00446142101A8FCF7A9FE1C4949
:103560002068884232D100BF1A48006840F0040049
:10357000184908600846006800F00400009000BF89
:1035800000BF00BF13481038006840F00800114920
:10359000103908600846006800F00800009000BF7D
:1035A00000BF881401900220029000200390049034
:1035B0000220059001A90848FEF722FB00221146CF
:1035C0001E20FEF7B5FC1E20FEF7A2FC06B010BDC3
:1035D0000008004040380240000C02402DE9F04154
:1035E00004460D4615B994F83E0015E0042D02D1AD
:1035F0003F20005D10E0082D02D14020005D0BE06F
:103600000C2D02D14120005D06E0102D02D1422098
:10361000005D01E04320005D074615B994F84400C1
:103620000BE0042D02D14520005D06E0082D02D1FB
:103630004620005D01E04720005D8046012F02D159
:10364000B8F1010F02D00120BDE8F0811DB90220C0
:1036500084F83E001AE0042D03D102213F200155D9
:1036600014E0082D03D10221402001550EE00C2D5D
:1036700003D102214120015508E0102D03D1022180
:103680004220015502E00221432001551DB90220CC
:1036900084F844000EE0042D03D102214520015599
:1036A00008E0082D03D102214620015502E0022145
:1036B0004720015535B1042D0BD0082D10D00C2D0D
:1036C0001CD114E02068C06840F002002168C86086
:1036D00015E02068C06840F004002168C8600EE072
:1036E0002068C06840F008002168C86007E02068D2
:1036F000C06840F010002168C86000E000BF00BF53
:1037000001222946206801F03BFC1C4920688842C0
:103710001BD02068B0F1804F17D01949206888422B
:1037200013D01849206888420FD017492068884272
:103730000BD016492068884207D015492068884276
:1037400003D014492068884210D12068806812494B
:1037500000EA0106062E0FD0B6F5803F0CD0206897
:10376000006840F001002168086005E020680068FA
:1037700040F0010021680860002065E7000001407A
:103780000004004000080040000C0040000401401C
:1037900000400140001800400700010030B5044619
:1037A0000D4635B1042D0BD0082D10D00C2D1CD199
:1037B00014E02068C06820F002002168C86015E0AD
:1037C0002068C06820F004002168C8600EE020680E
:1037D000C06820F008002168C86007E02068C06861
:1037E00020F010002168C86000E000BF00BF002288
:1037F0002946206801F0C4FB00BF2068006A41F23E
:103800001111084050B92068006A8910084028B991
:103810002068006820F001002168086000BF1DB921
:10382000012084F83E001AE0042D03D101213F203D
:10383000015514E0082D03D10121402001550EE06F
:103840000C2D03D101214120015508E0102D03D199
:1038500001214220015502E00121432001551DB9FB
:10386000012084F844000EE0042D03D101214520FD
:10387000015508E0082D03D101214620015502E041
:10388000012147200155002030BD10B504462068B5
:103890000069C0F34000D8B12068C068C0F34000A0
:1038A000B0B16FF002002168086101202077206824
:1038B000806900F0030018B12046FFF785FD05E0A0
:1038C000204600F0EDF8204600F0EEF900202077C9
:1038D00020680069C0F38000D8B12068C068C0F3D8
:1038E0008000B0B16FF004002168086102202077E9
:1038F0002068806900F4407018B12046FFF764FD2D
:1039000005E0204600F0CCF8204600F0CDF900207C
:10391000207720680069C0F3C000D8B12068C06873
:10392000C0F3C000B0B16FF0080021680861042046
:1039300020772068C06900F0030018B12046FFF727
:1039400043FD05E0204600F0ABF8204600F0ACF95E
:103950000020207720680069C0F30010D8B12068EB
:10396000C068C0F30010B0B16FF0100021680861AA
:10397000082020772068C06900F4407018B1204604
:10398000FFF722FD05E0204600F08AF8204600F00F
:103990008BF9002020772068006900F0010058B101
:1039A0002068C06800F0010030B16FF001002168AC
:1039B0000861204600F01CFA20680069C0F3C010BE
:1039C00058B12068C068C0F3C01030B16FF08000FB
:1039D000216808612046FFF7DEFA20680069C0F31D
:1039E000002058B12068C068C0F3C01030B16FF437
:1039F0008070216808612046FFF7CCFA20680069D2
:103A0000C0F3801058B12068C068C0F3801030B196
:103A10006FF0400021680861204600F077FB2068C5
:103A20000069C0F3401058B12068C068C0F340106E
:103A300030B16FF02000216808612046FFF7ACFA32
:103A400010BD000010B586B00446142101A8FCF793
:103A50002FFC1049206888421AD100BF0E48006828
:103A600040F004000C4908600846006800F00400BB
:103A7000009000BF00BF8020019002200290002033
:103A8000039004900220059001A90448FEF7B8F8BD
:103A900006B010BD0004004030380240000802406B
:103AA000704770B504460D46164600BF94F83C00BA
:103AB000012801D1022070BD012084F83C0000BF24
:103AC0000C2E51D005DC4EB1042E1ED0082E7AD11A
:103AD00033E0102E60D0142EF9D175E0294620680D
:103AE00001F074FA2068806940F00800216888615C
:103AF0002068806920F0040021688861206880695E
:103B0000296908432168886177E02946206801F027
:103B100097FA2068806940F4006021688861206815
:103B2000806920F480602168886120688069296943
:103B300040EA0120216888615FE02946206801F0A1
:103B4000BFFA2068C06940F008002168C861206899
:103B5000C06920F004002168C8612068C069296933
:103B600008432168C86148E02946206801F0E6FA68
:103B70002068C06940F400602168C8612068C0699D
:103B800020F480602168C8612068C069296940EA22
:103B900001202168C86130E02946206801F0FAFA66
:103BA0002068406D40F00800216848652068406D3D
:103BB00020F00400216848652068406D29690843A9
:103BC0002168486519E017E02946206801F00AFBE2
:103BD0002068406D40F40060216848652068406DB1
:103BE00020F48060216848652068406D296940EABA
:103BF00001202168486500E000BF00BF00BF002031
:103C000084F83C0000BF00BF55E710B504460CB96E
:103C1000012010BD94F83D0028B9002084F83C0034
:103C2000204600F029F8022084F83D00211D20687C
:103C300001F03AF9012084F8480000BF84F83E0002
:103C400001213F20015540200155412001554220CE
:103C500001554320015500BF00BF012084F84400F6
:103C600045200155462001554720015500BF012040
:103C700084F83D000020CCE708B5094A016891426C
:103C80000DD100BF0749096841F00201054A1160E2
:103C90001146096801F00201009100BF00BF08BD94
:103CA00000040040403802407047000070B50446F0
:103CB0000D4615B994F83E0015E0042D02D13F20C1
:103CC000005D10E0082D02D14020005D0BE00C2DBE
:103CD00002D14120005D06E0102D02D14220005D9E
:103CE00001E04320005D012801D0012070BD1DB915
:103CF000022084F83E001AE0042D03D102213F2067
:103D0000015514E0082D03D10221402001550EE099
:103D10000C2D03D102214120015508E0102D03D1C3
:103D200002214220015502E00221432001550122D7
:103D30002946206801F024F925492068884203D0EB
:103D400024492068884201D1012000E0002028B1E8
:103D50002068406C40F40040216848641C49206899
:103D600088421BD02068B0F1804F17D01A492068D4
:103D7000884213D01949206888420FD0184920681A
:103D800088420BD013492068884207D01549206823
:103D9000884203D014492068884210D12068806886
:103DA000124900EA0106062E0FD0B6F5803F0CD06E
:103DB0002068006840F001002168086005E0206884
:103DC000006840F001002168086000208EE70000D4
:103DD00000000140000401400004004000080040D1
:103DE000000C0040004001400018004007000100A6
:103DF0001CB50446B049206888422FD18021AF48C5
:103E0000FEF712F8AE48FDF78BFAAE490968D1F813
:103E1000BC10AC4A126822F81100A948FDF7C4FB97
:103E20000120A9490870A7480068D0F8BC00A5493E
:103E3000096831F81000A5490880A2480068D0F848
:103E4000BC002E2805D100209E490968C1F8BC009D
:103E500000BF00BF80219948FDF7E6FF9C4920681C
:103E600088421FD19B480068D0F894019A4909689C
:103E7000484300EE100AB8EEC00B984890ED001BC6
:103E8000B3EE002B21EE021B80EE012BB7EEC20B2E
:103E90009348006880ED060A0120924908700020CE
:103EA0008D4908609049206888427DD18C4800681F
:103EB00090ED070A8D488E49096800EB8100D0ED2E
:103EC000000A30EE600A8648006880ED080A8448DF
:103ED0000068007D012868D18148006890ED090ADA
:103EE0007F48006880ED0A0A7D48006890ED090A65
:103EF0007B480068D0ED0B0A30EE200A7848006855
:103F000080ED090A79487A49096800EB810090ED53
:103F1000000A77480068401E744901EB8000D0ED2C
:103F2000000A30EE600A6E480068D0ED130A20EEF9
:103F3000200A6B480068D0ED0E0A6948006890EDD1
:103F40000F1A00EE810A6648006880ED0C0A64488A
:103F5000006890ED140A62480068D0ED080A20EE6F
:103F6000200A5F480068D0ED150A5D48006890EDB2
:103F7000091A00EE810A5A480068D0ED0C0A30EEAA
:103F8000600A5748006880ED0D0A5548006890EDBA
:103F9000080A5348006880ED0B0A5148006890ED0C
:103FA000060A4F48006801E084E045E080ED160A0B
:103FB0004B48006890ED0C0A4948006880ED0F0AF4
:103FC0004748006890ED0D0A45480068D0ED180A92
:103FD000B4EEE00AF1EE10FA10DD4148006890ED11
:103FE000180A3F48006880ED0D0A3D48006890EDD2
:103FF0000A0A3B48006880ED090A2DE0384800684D
:1040000090ED0D0A36480068D0ED190AB4EEE00ACA
:10401000F1EE10FA20D23248006890ED190A3048CB
:10402000006880ED0D0A2E48006890ED0A0A2C48C1
:10403000006880ED090A0FE02948006890ED080A41
:104040002748006880ED0B0A2548006890ED060AB5
:104050002348006880ED160A2148006890ED0D0A9B
:10406000B7EEC00A8DED000B20482149096800EB2E
:10407000810090ED001AB7EEC11AB0EE410B53EC7F
:10408000102B1C4801681CA001F0BAFD18480068FC
:10409000401C1749086017480068401C1549086013
:1040A00013480068142802DB002011490860012031
:1040B000154908701CBD00000010004000040240BB
:1040C000DC1000200C000020100000201200002056
:1040D00000140040380000203400002020000020A0
:1040E0003C0000204000002000400140440000202F
:1040F0009400002098000020256420252E326620A0
:10410000252E32660A0000004100002070477047EB
:10411000704770472DE9F04704462068C56920685C
:1041200006682068876840F60F0005EA0009B9F1C3
:10413000000F0CD105F0200048B106F0200030B18E
:10414000606E10B12046616E8847BDE8F087B9F116
:10415000000F7DD007F0010018B99C4830400028BE
:10416000F7D005F0010058B106F4807040B101208D
:1041700021680862D4F8800040F00100C4F8800093
:1041800005F0020058B107F0010040B1022021689B
:104190000862D4F8800040F00400C4F8800005F004
:1041A000040058B107F0010040B104202168086202
:1041B000D4F8800040F00200C4F8800005F0080048
:1041C00070B106F0200010B907F0010040B10820DE
:1041D00021680862D4F8800040F00800C4F880002C
:1041E00005F4006060B106F0806048B14FF40060F3
:1041F00021680862D4F8800040F02000C4F88000F4
:10420000D4F8800090B305F0200038B106F020000B
:1042100020B1606E10B12046616E8847D4F880A04E
:104220002068806800F04000402802D00AF0280092
:1042300028B3204601F088F92068806800F040002B
:10424000402818D12068806820F04000216800E0F4
:104250001CE08860206F50B15D48216F0865206FB9
:10426000FDF70FFB10B1206F016D88470DE0204670
:10427000FFF74FFF09E02046FFF74BFF05E0204620
:10428000FFF747FF0020C4F880005EE7206E01289A
:1042900075D105F01000002871D006F0100000283C
:1042A0006DD01020216808622068806800F040000E
:1042B00040283BD1206F006840681FFA80F8B8F1B1
:1042C000000F32D0B4F8580040452EDDA4F85A80D3
:1042D000206FC069B0F5807F1ED02068006820F490
:1042E0008070216808602068806820F001002168E3
:1042F00088602068806820F0400021688860202065
:10430000E067002020662068006820F01000216827
:104310000860206FFDF760FAB4F85800B4F85A202E
:10432000801A81B22046FFF7F2FE0EE734F8580FEC
:104330006188401A1FFA80F86088583CE8B1B8F1EB
:10434000000F1AD02068006820F49070216808607F
:104350002068806820F00100216888602020E067E4
:104360000020206660662068006820F01000216848
:10437000086041462046FFF7CAFEE6E6FFE705F47F
:10438000801050B107F4800038B14FF480102168DC
:1043900008622046FFF7BCFED7E605F0800040B17A
:1043A00006F0800028B1A06E10B12046A16E8847AB
:1043B000CBE605F0400030B106F0400018B12046D1
:1043C00001F0DDF8C1E600BFBFE6000020010004F7
:1043D0003155000810B504460CB9012010BDA06984
:1043E00000B100E000BFA06F28B9002084F874007D
:1043F000204600F029F82420A0672068006820F0FB
:10440000010021680860204601F056F9012800D11A
:10441000E4E7606A10B1204600F0D5FF20684068EC
:1044200020F49040216848602068806820F02A00CD
:10443000216888602068006840F0010021680860F9
:10444000204601F03CF8C9E710B586B004461421B7
:1044500001A8FBF72DFF1D492068884234D100BF19
:104460001B48006840F4802019490860084600682D
:1044700000F48020009000BF00BF00BF1448103837
:10448000006840F0080012491039086008460068CA
:1044900000F00800009000BF00BF4FF44070019092
:1044A0000220029000200390032004900720059032
:1044B00001A90848FDF7A4FB002211462720FDF7BB
:1044C00037FD2720FDF724FD06B010BD0048004051
:1044D00040380240000C024070B504460D461646B6
:1044E000E06F202821D105B10EB9012070BD00BFB9
:1044F00094F87400012801D10220F7E7012084F824
:10450000740000BF002020662068406800F40000AE
:1045100028B12068006840F0806021680860324659
:104520002946204601F066FAE0E70220DEE70000B7
:1045300010B504461149206888421DD11048114920
:104540000978405C0A2805D100200D490D4A1278EF
:10455000885409E00B480078401C0A490870084656
:10456000007820F0800008700548064A127881180B
:1045700001220548FFF7B0FF10BD000000480040D1
:1045800074130020A0000020741500202DE9F84FBE
:1045900004460E4617469946A06F20285DD106B105
:1045A00017B90120BDE8F88F00BF94F87400012806
:1045B00001D10220F6E7012084F8740000BF00203A
:1045C000503420632120A062FDF73EFC8246278004
:1045D0006780503CA068B0F5805F04D1206910B9B5
:1045E0000025B04602E035464FF0000800BF00202D
:1045F00084F8740000BF1DE053460022802120464D
:10460000CDF8009001F096FA08B10320CAE745B949
:10461000B8F80000C0F308002168886208F10208B9
:1046200003E02878216888626D1CB4F85200401EAF
:10463000A4F85200B4F852000028DDD153460022FD
:1046400040212046CDF8009001F074FA08B1032013
:10465000A8E72020A0670020A4E70220A2E700002E
:1046600010B50346986F202830D101B10AB9012056
:1046700010BD00BF93F87400012801D10220F7E7B4
:10468000012083F8740000BF43F84C1F9A80DA8041
:104690000020D86158632120D8624C3B9868B0F55F
:1046A000805F04D1186910B90948986601E009488B
:1046B000986600BF002083F8740000BF1868006887
:1046C00040F080001C6820600020D1E70220CFE786
:1046D000B15A0008F55A000810B504461D49206873
:1046E000884235D11C480078401C1B490870084698
:1046F000007820F08000087018480978405C40B1CC
:104700001648154A1278811801221548FFF7A8FFAC
:104710001EE00D2210490878411C0F4B19700F49FB
:104720000A540A201A461278885418460078401E07
:10473000C0B21A4610700A46811864230222084843
:10474000FFF724FF01200749086000200249087094
:1047500010BD000000480040A80000207414002094
:1047600074150020A400002000BFFEE71FB5002044
:1047700000900190029003901548164908604FF48C
:10478000803048600021134881600161816180F8B8
:104790002010C162104981620021C1600121C16104
:1047A000002180F8301001214161FCF7BDFD08B106
:1047B000FCF7C7FC0020009001200190002002902F
:1047C00069460448FCF7C0FC08B1FCF7BAFC1FBD01
:1047D00000200140DC1000200100000F1CB500206B
:1047E000009001900A480B4908600846FCF778FFE2
:1047F00008B1FCF7A6FC24200090002001901022B4
:1048000069460448FCF7F5FE08B1FCF79AFC1CBDAC
:10481000007400402411002008B500BF0A48006859
:1048200040F40010084908600846006800F40010D1
:10483000009000BF00BF002211461120FDF778FB59
:104840001120FDF765FB08BD3038024000B587B088
:10485000142102A8FBF72CFD00BF4448006840F07B
:104860000400424908600846006800F00400019016
:1048700000BF00BF00BF0846006840F001000860AC
:104880000846006800F00100019000BF00BF00BFB3
:104890000846006840F0020008600846006800F022
:1048A0000200019000BF00BF00BF0846006840F052
:1048B000080008600846006800F00800019000BF8A
:1048C00000BF00BF0846006840F04000086008468E
:1048D000006800F04000019000BF00BF00224021AE
:1048E0002348FDF7ABFA00224FF440712148FDF751
:1048F000A5FA002280212048FDF7A0FA402002906E
:104900000120039000200490059002A91848FDF7AB
:1049100077F98020029000200390049002A91448A7
:10492000FDF76EF94FF400700290002003900490A0
:1049300002A91248FDF764F94FF44070029001207B
:10494000039000200490059002A90A48FDF758F949
:10495000802002900120039000200490059002A97D
:104960000548FDF74DF907B000BD000030380240A2
:10497000001802400000024000040240000802400B
:1049800000B587B000200390049005900690009039
:10499000019002904FF08040144908600020486068
:1049A00000211248816048F69F41C16000210161E9
:1049B0008161FEF759FB08B1FCF7C3FB4FF480504F
:1049C000039003A90948FEF779FC08B1FCF7B9FB8D
:1049D000202000900020029069460448FEF7DEFA8D
:1049E00008B1FCF7AEFB07B000BD0000AC11002021
:1049F00000B58BB00020089009900A901C2101A8F6
:104A0000FBF756FC1848194908600320486000214C
:104A10001648816046F2A811C16000210161802121
:104A20008161FFF7F2F808B1FCF78BFB502008908A
:104A300000200A9008A90D48FEF7B0FA08B1FCF76B
:104A400080FB6020019000200290039005900422DA
:104A500001A90648FFF725F808B1FCF772FB0348E7
:104A6000FEF7F0FF0BB000BD00040040F81100207D
:104A700000B587B00020049005900690009001904A
:104A800002900390164817490860002048600021F2
:104A9000144881604FF6FF71C1600021016181619E
:104AA000FEF71EFD08B1FCF74CFB002004900690B9
:104AB00004A90C48FEF772FA08B1FCF742FB00208B
:104AC000009001200190002002900390002269468E
:104AD0000448FEF79BFC08B1FCF733FB07B000BDB0
:104AE00000080040441200203EB500240020009041
:104AF0000190029024482549086000E0641C601C75
:104B0000234991FBF0F000EE100AB8EEC01B2148DB
:104B100090ED002BB7EE000B11EE020B9FED1E2B5C
:104B200080EE021BB7EE000BB4EEC01BF1EE10FAE4
:104B3000E4DC1648446000218160601C144991FB4C
:104B4000F0F000EE100AB8EEC01B124890ED002BFA
:104B5000B7EE000B11EE020BBCEEC00B0B4880ED64
:104B6000030A80218161FEF77FFA08B1FCF7E9FAB8
:104B700000200090029069460448FEF70FFA08B141
:104B8000FCF7DFFA3EBD000000100040901200204C
:104B900000F36F061800002000000000004CED40FC
:104BA0003EB5002400200090019002902448254941
:104BB000086000E0641C601C234991FBF0F000EEEB
:104BC000100AB8EEC01B214890ED002BB7EE000B89
:104BD00011EE020B9FED1E2B80EE021BB7EE000BB9
:104BE000B4EEC01BF1EE10FAE4DC1648446000217C
:104BF0008160601C144991FBF0F000EE100AB8EEE1
:104C0000C01B124890ED002BB7EE000B11EE020B0B
:104C1000BCEEC00B0B4880ED030A80218161FEF7DA
:104C200023FA08B1FCF78DFA002000900290694643
:104C30000448FEF7B3F908B1FCF783FA3EBD000063
:104C400000140040DC12002000F36F06200000205A
:104C500000000000004CED401FB500240020009033
:104C600001900290039025482549086000E0641CEB
:104C7000601C244991FBF0F000EE100AB8EEC01B56
:104C8000214890ED002BB7EE000B11EE020B9FEDCB
:104C90001F2B80EE021BB7EE000BB4EEC01BF1EE33
:104CA00010FAE4DC1648446000218160601C15495C
:104CB00091FBF0F000EE100AB8EEC01B124890ED28
:104CC000002BB7EE000B11EE020BBCEEC00B0C4834
:104CD00080ED030A0021016180218161FEF7C4F9A2
:104CE00008B1FCF72EFA4FF4805000906946044852
:104CF000FEF7E4FA08B1FCF724FA1FBD00400140BA
:104D00002813002000F36F06280000200000000098
:104D1000004CED4010B50D480D4908604FF461306E
:104D2000486000210A488160C16001610C21416135
:104D300000218161C1610162002005494862084685
:104D4000FFF748FB08B1FCF7FCF910BD0048004034
:104D50007415002000BFFEE700BFFEE770477047F4
:104D600010B5FDF777F810BD00B5B7B034212AA80B
:104D7000FBF79EFA142125A8FBF79AFA902101A8C7
:104D8000FBF796FA00BF2B48006840F08050294995
:104D900008600846006800F08050009000BF00BF27
:104DA00000BF2548006840F4404023490860084699
:104DB000006800F44040009000BF00BF02202A902D
:104DC00001202D9010202E900220309000212AA842
:104DD000C16108210162D821416202218162C16260
:104DE000FDF734FE08B1FCF7ACF9FDF7F3F808B1B4
:104DF000FCF7A7F90F20259002202690002027908D
:104E00004FF4A05028904FF480502990072125A8F6
:104E1000FDF7D6FC08B1FCF794F94FF480700190CF
:104E20000020149001A8FDF71DF908B1FCF789F9DD
:104E300037B000BD403802400070004003480068B1
:104E400040F47000014908607047000088ED00E000
:104E500010B50248FEF719FD10BD00002813002010
:104E600010B50248FEF711FD10BD0000AC11002086
:104E700010B50248FEF709FD10BD000044120020E5
:104E800010B50348FCF7E7FB0248FEF7FEFC10BD37
:104E9000241100209012002010B50248FEF7F5FC06
:104EA00010BD0000DC12002010B50268294B9842AA
:104EB0000ED0B0F1804F0BD0274B984208D0274B33
:104EC000984205D0264B984202D0264B984203D1F7
:104ED00022F070024B681A431E4B984220D0B0F16A
:104EE000804F1DD01C4B98421AD01C4B984217D0B3
:104EF0001B4B984214D01B4B984211D01A4B98422E
:104F00000ED01A4B98420BD0194B984208D0194B2F
:104F1000984205D0184B984202D0184B984203D1C2
:104F200022F44072CB681A4322F080034C6943EAB2
:104F3000040202608B68C3620B688362054B98426F
:104F400002D0084B984201D10B69036301234361EE
:104F500010BD0000000001400004004000080040B7
:104F6000000C0040000401400040014000440140AA
:104F70000048014000180040001C00400020004094
:104F800030B501F01F05012404FA05F3046A9C43BF
:104F90000462046A01F01F0502FA05F52C4304625D
:104FA00030BD30B50C46816821F47F4142EA0325CB
:104FB00025432943816030BD0A46816821F0700194
:104FC00042F00703194381607047000030B5056A5D
:104FD00025F001050562026A43688469154D2C407D
:104FE00024F003040D682C4322F002028D682A434A
:104FF000114DA84200D103E0104DA84206D100BFD8
:1050000022F00802CD682A4322F004020A4DA84289
:1050100002D00A4DA84207D123F4807323F4007311
:105020004D692B438D692B43436084614D68456313
:10503000026230BD8FFFFEFF00000140000401400E
:1050400030B5056A25F010050562026A4368846977
:10505000184D2C4024F440740D6844EA052422F0D5
:1050600020028D6842EA0512134DA84200D103E0E8
:10507000124DA84207D100BF22F08002CD6842EA5B
:10508000051222F040020C4DA84202D00B4DA8425E
:1050900009D123F4806323F400634D6943EA850357
:1050A0008D6943EA8503436084614D6885630262CC
:1050B00030BD0000FF8FFFFE0000014000040140F2
:1050C00030B5056A25F480750562026A4368C469D3
:1050D000174D2C4024F003040D682C4322F4007279
:1050E0008D6842EA0522134DA84200D103E0124D1B
:1050F000A84207D100BF22F40062CD6842EA05222F
:1051000022F480620B4DA84202D00B4DA84209D177
:1051100023F4805323F400534D6943EA05138D694A
:1051200043EA05134360C4614D68C563026230BD44
:105130008FFFFEFF000001400004014030B5056A0A
:1051400025F480550562036A4468C2690E4D2A4001
:1051500022F440720D6842EA052223F400538D6860
:1051600043EA0533094DA84202D0094DA84204D1B3
:1051700024F480444D6944EA85144460C2614D685A
:105180000564036230BD0000FF8FFFFE0000014098
:105190000004014030B5056A25F480350562026AD5
:1051A0004368446D0C4D2C400D682C4322F40032B2
:1051B0000D8942EA0542094DA84202D0084DA84295
:1051C00004D123F480334D6943EA052343604465E9
:1051D0004D688565026230BD8FFFFEFF0000014013
:1051E0000004014030B5056A25F480150562026AA5
:1051F0004368446D0D4D2C400D6844EA052422F4AB
:1052000000120D8942EA0552094DA84202D0094D0B
:10521000A84204D123F480234D6943EA85234360E7
:1052200044654D68C565026230BD0000FF8FFFFE1A
:10523000000001400004014030B50B461446026AEC
:10524000056A25F001050562816921F0F00141EA56
:10525000041122F00A021A438161026230BD00008B
:1052600070B50C461546066A26F00106066281698D
:10527000026A184EB04214D0B0F1804F11D0164ED1
:10528000B0420ED0154EB0420BD0154EB04208D0F1
:10529000144EB04205D0144EB04202D0134EB0426C
:1052A00001D1012600E000261EB121F003012943AF
:1052B00001E041F0010121F0F001F02606EA0316B9
:1052C000314322F00A0204F00A063243816102628D
:1052D00070BD0000000001400004004000080040D4
:1052E000000C004000040140004001400018004054
:1052F00030B50B461446056A25F010050562816934
:10530000026A21F4704141EA043122F0A00242EA2B
:1053100003128161026230BD70B50C461546066A03
:1053200026F0100606628169026A21F4407141EAA2
:10533000052121F470414FF4704606EA03363143EB
:1053400022F0A002A02606EA04163243816102621E
:1053500070BD70B50C461546066A26F48076066266
:10536000C169026A21F00301294321F0F001F0260E
:1053700006EA0316314322F420624FF4206606EA5F
:1053800004263243C161026270BD70B50C461546F9
:10539000066A26F480560662C169026A21F44071E9
:1053A00041EA052121F470414FF4704606EA0336C4
:1053B000314322F420424FF4204606EA04363243B9
:1053C000C161026270BD90F8241001F0010139B191
:1053D0000168496821F40031826A11430268516012
:1053E00090F8241001F00201022907D101684968F0
:1053F00021F48031C26A11430268516090F8241090
:1054000001F00401042907D10168496821F48021D1
:10541000026B11430268516090F8241001F00801FA
:10542000082907D10168496821F40041426B114302
:105430000268516090F8241001F01001102907D182
:105440000168896821F48051826B11430268916080
:1054500090F8241001F02001202907D10168896803
:1054600021F40051C26B11430268916090F824103E
:1054700001F04001402913D10168496821F48011ED
:10548000026C114302685160016CB1F5801F07D1B5
:105490000168496821F4C001426C114302685160FF
:1054A00090F8241001F08001802907D10168496833
:1054B00021F40021826C114302685160704738B5B5
:1054C00004460020C4F88000FCF7BEFC05462068B6
:1054D000006800F0080008280CD16FF07E402B46D1
:1054E00000224FF400110090204600F023FB08B189
:1054F000032038BD2068006800F0040004280CD1A7
:105500006FF07E402B4600224FF480010090204631
:1055100000F010FB08B10320EBE72020A067E06754
:105520000020206600BF84F8740000BF00BFE0E7E1
:1055300070B50546AC6B0020A4F85A00A4F85200E0
:105540002046FEF7E6FD70BD0168096821F4907100
:10555000026811600168896821F0010102689160A8
:10556000016E012905D10168096821F01001026866
:1055700011602021C167002101664166704710B5A6
:1055800004462068006820F0400021680860202060
:10559000A0670020A0662046FFF79EF810BD2DE909
:1055A000F0410446B4F85C70E06F222836D12068E0
:1055B000406A86B2656D06EA07002880606D801C2F
:1055C0006065B4F85A00401EA4F85A00B4F85A00B6
:1055D00018BB2068006820F490702168086020687B
:1055E000806820F00100216888602020E0670020AA
:1055F0006066206E01280BD12068006820F0100042
:1056000021680860B4F858102046FEF780FD02E0DB
:105610002046FEF78DFF0020206605E020688069A7
:1056200040F0080021688861BDE8F08170B504464B
:10563000B4F85C60E06F222836D12068406A85B2F9
:10564000F0B22840616D0870606D401C6065B4F870
:105650005A00401EA4F85A00B4F85A0018BB20683B
:10566000006820F49070216808602068806820F04D
:105670000100216888602020E06700206066206EBD
:1056800001280BD12068006820F010002168086014
:10569000B4F858102046FEF73AFD02E02046FEF727
:1056A00047FF0020206605E02068806940F0080080
:1056B0002168886170BD00002DE9F04705464FF074
:1056C000000A2969A868084369690843E96940EA4A
:1056D000010828680068BC49084040EA08002968B9
:1056E00008602868406820F44050E9680843296849
:1056F0004860D5F81880286A40EA08082868806859
:1057000020F4306040EA08002968886000BFAF4993
:105710002868884216D1AE48006800F0030030B116
:10572000012808D0022804D0032808D105E001246C
:1057300007E0022405E0042403E0082401E010242B
:1057400000BFC9E0A3492868884216D1A048006874
:1057500000F00C0030B1042808D0082804D00C2830
:1057600008D105E0002407E0022405E0042403E05A
:10577000082401E0102400BFAEE097492868884261
:1057800016D19348006800F0300030B1102808D0DE
:10579000202804D0302808D105E0002407E00224A6
:1057A00005E0042403E0082401E0102400BF93E096
:1057B0008A492868884216D18548006800F0C000F0
:1057C00030B1402808D0802804D0C02808D105E096
:1057D000002407E0022405E0042403E0082401E09B
:1057E000102400BF78E07E492868884219D17848A3
:1057F000006800F4407048B1B0F5807F0AD0B0F581
:10580000007F05D0B0F5407F08D105E0002407E017
:10581000022405E0042403E0082401E0102400BF72
:105820005AE070492868884219D16948006800F434
:10583000406048B1B0F5806F0AD0B0F5006F05D078
:10584000B0F5406F08D105E0012407E0022405E02F
:10585000042403E0082401E0102400BF3CE0624976
:105860002868884219D15A48006800F4405048B16D
:10587000B0F5805F0AD0B0F5005F05D0B0F5405FAD
:1058800008D105E0002407E0022405E0042403E039
:10589000082401E0102400BF1EE054492868884213
:1058A00019D14B48006800F4404048B1B0F5804F32
:1058B0000AD0B0F5004F05D0B0F5404F08D105E053
:1058C000002407E0022405E0042403E0082401E0AA
:1058D000102400BF00E0102400BFE869B0F5004FBD
:1058E0003AD1092C17D2DFE804F005090D160F167E
:1058F00016161300FDF734F8064610E0FDF740F8E1
:1059000006460CE03A4E0AE0FDF74AF8064606E085
:105910004FF4004603E000264FF0010A00BF00BF2D
:105920008EB37000696800EB5100B0FBF1F087B2F4
:10593000102F0ED3B7F5803F0BD24FF6F07007EA69
:105940000009C7F3420049EA00092868C0F80C9032
:1059500034E04FF0010A31E0092C18D2DFE804F0FE
:1059600005090D170F1717171400FCF7F9FF064666
:1059700011E0FDF705F806460DE01D4E0BE0FDF7C2
:105980000FF8064607E019E04FF4004603E0002652
:105990004FF0010A00BF00BF86B1686806EB5000F7
:1059A0006968B0FBF1F087B2102F05D3B7F5803FDF
:1059B00002D22868C76001E04FF0010A0020686643
:1059C000A8665046BDE8F087F369FFEF001001407C
:1059D000903802400044004000480040004C004025
:1059E000005000400014014000780040007C00405E
:1059F0000024F40010B503465965A3F85820A3F815
:105A00005A200020586600BF9868B0F5805F0AD120
:105A1000186920B940F2FF10A3F85C0020E0FF20D5
:105A2000A3F85C001CE0986848B9186918B9FF2011
:105A3000A3F85C0014E07F20A3F85C0010E09868F5
:105A4000B0F1805F09D1186918B97F20A3F85C0014
:105A500006E03F20A3F85C0002E00020A3F85C0011
:105A600000BF0020C3F880002220D8671868806833
:105A700040F001001C68A0609868B0F5805F04D118
:105A8000186910B90848586601E00848586600BF10
:105A9000002083F8740000BF1868006840F490701C
:105AA0001C682060002010BD9F5500082D5600087E
:105AB000826F212A1DD1B0F8522062B902681268A3
:105AC00022F0800203681A600268126842F0400205
:105AD00003681A600DE0C16C0A88C2F3080203680B
